:020000040800F2
:1000000000000524A1730008154C00081D4C0008D1
:10001000254C00082D4C0008354C0008000000005D
:100020000000000000000000000000003D4C00083F
:100030004B4C000800000000594C0008674C0008B9
:10004000F1730008F1730008F1730008F173000800
:10005000F1730008F1730008F1730008F1730008F0
:10006000F1730008F1730008F17300085D340008B3
:10007000F1730008F1730008F1730008F1730008D0
:10008000F1730008F1730008F1730008F1730008C0
:10009000F1730008F1730008F1730008F1730008B0
:1000A000F1730008F1730008F1730008F1730008A0
:1000B000F1730008F1730008F1730008F173000890
:1000C000F1730008F1730008F1730008F173000880
:1000D000F1730008F1730008F17300084934000857
:1000E000F1730008F173000800000000F1730008CC
:1000F000F1730008F1730008F1730008F173000850
:10010000F1730008F1730008754C0008F1730008E2
:10011000F1730008F1730008F1730008F17300082F
:10012000F1730008F1730008F1730008F17300081F
:10013000F1730008F1730008F1730008F17300080F
:1001400000000000000000000000000000000000AF
:10015000F1730008F1730008F1730008F1730008EF
:10016000F1730008F1730008F1730008F1730008DF
:10017000F1730008F1730008F1730008000000003B
:10018000F1730008F1730008F1730008F1730008BF
:10019000F1730008F1730008F1730008F1730008AF
:1001A000F1730008F1730008F1730008000000000B
:1001B000F1730008F1730008F1730008F17300088F
:1001C000F1730008F1730008000000000000000057
:1001D0000000000000000000F173000800000000B3
:1001E000000000000000000000000000000000000F
:1001F0000000000000000000F1730008F173000827
:10020000F1730008F173000800000000F1730008AA
:10021000F1730008F1730008F1730008F17300082E
:10022000F173000800000000F173000800000000F6
:10023000F1730008F173000800000000F17300087A
:10024000F1730008F1730008F1730008F1730008FE
:10025000F1730008F1730008F1730008F1730008EE
:10026000F1730008F1730008F1730008F1730008DE
:10027000F1730008F1730008F1730008000000003A
:10028000F1730008F1730008F1730008F1730008BE
:1002900000000000F1730008F17300080000000086
:1002A00000000000F1730008F1730008F17300080A
:1002B000F1730008F1730008F1730008F17300088E
:0C02C000F1730008F1730008F1730008EE
:1002D00081F0004102E000BF83F0004330B54FEAF7
:1002E00041044FEA430594EA050F08BF90EA020F64
:1002F0001FBF54EA000C55EA020C7FEA645C7FEAF7
:10030000655C00F0E2804FEA5454D4EB5555B8BF19
:100310006D420CDD2C4480EA020281EA030382EA8A
:10032000000083EA010180EA020281EA0303362D1C
:1003300088BF30BD11F0004F4FEA01314FF4801CEF
:100340004CEA113102D0404261EB410113F0004F01
:100350004FEA03334CEA133302D0524263EB4303B8
:1003600094EA050F00F0A780A4F10104D5F1200E56
:100370000DDB02FA0EFC22FA05F2801841F10001B1
:1003800003FA0EF2801843FA05F359410EE0A5F185
:1003900020050EF1200E012A03FA0EFC28BF4CF0B6
:1003A000020C43FA05F3C01851EBE37101F000456C
:1003B00007D54FF0000EDCF1000C7EEB00006EEB79
:1003C0000101B1F5801F1BD3B1F5001F0CD3490803
:1003D0005FEA30004FEA3C0C04F101044FEA44525A
:1003E00012F5800F80F09A80BCF1004F08BF5FEAE1
:1003F000500C50F1000041EB045141EA050130BDC1
:100400005FEA4C0C404141EB0101013C28BFB1F5D2
:10041000801FE9D291F0000F04BF01460020B1FA1D
:1004200081F308BF2033A3F10B03B3F120020CDAF0
:100430000C3208DD02F1140CC2F10C0201FA0CF0CE
:1004400021FA02F10CE002F11402D8BFC2F1200C33
:1004500001FA02F120FA0CFCDCBF41EA0C019040E9
:10046000E41AA2BF01EB0451294330BD6FEA040432
:100470001F3C1CDA0C340EDC04F11404C4F120021D
:1004800020FA04F001FA02F340EA030021FA04F32F
:1004900045EA030130BDC4F10C04C4F1200220FA86
:1004A00002F001FA04F340EA0300294630BD21FAC4
:1004B00004F0294630BD94F0000F83F4801306BF8A
:1004C00081F480110134013D4EE77FEA645C18BF7E
:1004D0007FEA655C29D094EA050F08BF90EA020F15
:1004E00005D054EA000C04BF1946104630BD91EA0D
:1004F000030F1EBF0021002030BD5FEA545C05D110
:100500004000494128BF41F0004130BD14F580044E
:100510003CBF01F5801130BD01F0004545F0FE41C2
:1005200041F470014FF0000030BD7FEA645C1ABFF7
:10053000194610467FEA655C1CBF0B46024650EA2E
:10054000013406BF52EA033591EA030F41F400215A
:1005500030BD00BF90F0000F04BF0021704730B5E0
:100560004FF4806404F132044FF000054FF00001B5
:1005700050E700BF90F0000F04BF0021704730B576
:100580004FF4806404F1320410F0004548BF40424B
:100590004FF000013EE700BF42004FEAE2014FEAA0
:1005A00031014FEA02701FBF12F07F4393F07F4F7B
:1005B00081F06051704732F07F4208BF704793F07E
:1005C0007F4F04BF41F40021704730B54FF4607491
:1005D00001F0004521F000411CE700BF50EA010294
:1005E00008BF704730B54FF000050AE050EA01023D
:1005F00008BF704730B511F0004502D5404261EBAD
:1006000041014FF4806404F132045FEA915C3FF4ED
:10061000D8AE4FF003025FEADC0C18BF03325FEA8A
:10062000DC0C18BF033202EBDC02C2F1200300FA3B
:1006300003FC20FA02F001FA03FE40EA0E0021FA60
:1006400002F11444BDE600BF844641EA000313F002
:1006500003036DD1403A41D351F8043B40F8043BC9
:1006600051F8043B40F8043B51F8043B40F8043B8C
:1006700051F8043B40F8043B51F8043B40F8043B7C
:1006800051F8043B40F8043B51F8043B40F8043B6C
:1006900051F8043B40F8043B51F8043B40F8043B5C
:1006A00051F8043B40F8043B51F8043B40F8043B4C
:1006B00051F8043B40F8043B51F8043B40F8043B3C
:1006C00051F8043B40F8043B51F8043B40F8043B2C
:1006D00051F8043B40F8043B403ABDD2303211D3CC
:1006E00051F8043B40F8043B51F8043B40F8043B0C
:1006F00051F8043B40F8043B51F8043B40F8043BFC
:10070000103AEDD20C3205D351F8043B40F8043BCB
:10071000043AF9D2043208D0D2071CBF11F8013BC9
:1007200000F8013B01D30B8803806046704700BF8F
:10073000082A13D38B078DD010F003038AD0C3F19E
:100740000403D21ADB071CBF11F8013B00F8013B80
:1007500080D331F8023B20F8023B7BE7043AD9D33F
:10076000013A11F8013B00F8013BF9D20B78037014
:100770004B7843708B788370604670470348044B16
:10078000834202D0034B03B118477047F4010024A1
:10079000F4010024000000000548064B1B1AD90F85
:1007A00001EBA301491002D0034B03B11847704776
:1007B000F4010024F40100240000000010B5064CF0
:1007C000237843B9FFF7DAFF044B13B10448AFF3C2
:1007D00000800123237010BDF401002400000000FC
:1007E000E8BE000808B5054B1BB105490548AFF345
:1007F0000080BDE80840FFF7CFBF00BF0000000049
:10080000F8010024E8BE000880B400AF074B1B6865
:100810001B68002B04D0054B1B680833034A136088
:1008200000BFBD465DF8047B704700BF1002002486
:1008300080B586B000AFF8600B467A60FB7200238B
:100840007B61214B1B68002B36D1F97A1F4B7A68EC
:10085000F86800F0E7FE0346002B03D001237B611C
:1008600000232DE0194B1B685B68174A1360174B78
:100870001B681B68164A13601EE0134B1B68144A62
:1008800012681146184600F07BFDFFF7BDFF0F4BC5
:100890001B681B68002B05D101237B610A4B0022DA
:1008A0001A6009E0094B1B685B68074A1360074B35
:1008B0001B681B68064A13607B69002BDDD0002390
:1008C00018461837BD4680BD2402002410020024BB
:1008D0002802002480B588B002AFF8607B600B4628
:1008E000FB721346BB7201237B61B97A3B6A0193A9
:1008F000FB7A0093144B7A68F86800F0F7FF034620
:10090000002B19D000231BE00F4B1B685A680E4BBD
:100910001B681B681946104600F0E4FC0346002BD8
:1009200001D001230CE0FFF76FFF074B1B681B682A
:10093000002B01D100237B617B69002BE4D10023D4
:1009400018461837BD4680BD1002002480B588B017
:1009500002AFF8607B600B46FB721346BB7201234B
:100960007B6100233B61B97A3B690193FB7A009379
:10097000144B7A68F86800F045FF0346002B19D045
:1009800000231BE00F4B1B685A680E4B1B681B684B
:100990001946104600F0A6FC0346002B01D00123A7
:1009A0000CE0FFF731FF074B1B681B68002B01D1E0
:1009B00000237B617B69002BE4D1002318461837A4
:1009C000BD4680BD1002002480B584B000AF034650
:1009D0000A46FB711346BB71FB79002B19D000232B
:1009E000FB7307F10F030121184600F07BFC03465F
:1009F000002B01D0012316E0FB79FB7307F10F03F5
:100A00000121184600F06EFC0346002B01D00123A3
:100A100009E0BB79184600F009FD0346002B01D020
:100A2000012300E0002318461037BD4680BD0000BA
:100A300080B485B000AF03460A46FB711346BB7114
:100A400097F90730062B00F2E38001A252F823F059
:100A50006D0A00089B0A0008010B0008A70B00089C
:100A60003B0B0008BB0B00080B0C0008BB790D2BDF
:100A70000FDC0B2B07DA092B02DC002B03DA08E072
:100A80000A2B03D005E00123FB7305E00123FB7370
:100A900002E0FF23FB7300BFBDE0BB790D2B2BD819
:100AA00001A252F823F000BFE10A0008ED0A000895
:100AB000ED0A0008F30A0008ED0A0008F30A00082E
:100AC000F30A0008E70A0008ED0A0008F30A000824
:100AD000F90A0008F30A0008ED0A0008E10A000814
:100AE0000523FB730BE00623FB7308E00423FB7371
:100AF00005E00223FB7302E0FF23FB7300BF8AE0E3
:100B0000BB79033B082B8CBF01220022D2B2002A02
:100B10000FD140F24D1222FA03F303F00103002B30
:100B200014BF01230023DBB2002B02D00423FB738C
:100B300002E0FF23FB7300BF6DE0BB79013B0C2B90
:100B40008CBF01220022D2B2002A28D1012202FA4F
:100B500003F341F6BB421A40002A14BF01220022CF
:100B6000D2B2002A12D103F48072002A14BF0122EB
:100B70000022D2B2002A0FD103F00403002B14BFCD
:100B800001230023DBB2002B03D108E00523FB7314
:100B900008E00323FB7305E00723FB7302E0FF2358
:100BA000FB7300BF37E0BB79032B02D10523FB7336
:100BB00002E0FF23FB7300BF2DE0BB790D2B8CBF40
:100BC00001220022D2B2002A1BD101229A4043F214
:100BD000FE031340002B14BF01230023DBB2002BC4
:100BE0000CD140F601131340002B14BF0123002346
:100BF000DBB2002B05D00723FB7305E00623FB7354
:100C000002E0FF23FB7300BF05E00723FB7302E054
:100C1000FF23FB7300BF97F90F3018461437BD460A
:100C20005DF8047B704700BF80B582B000AF1D4BFC
:100C300093F90030002B31D1FB1D0121184600F043
:100C40009FFBFA79174B5A70164B5B780A2B0DD124
:100C5000154B01221A6001210820FFF7B5FE03465B
:100C6000002B1AD0114B00221A6017E00D4B93F99C
:100C700000300C4A527811461846FFF7D9FE034659
:100C80001A46084B1A70074B93F90030B3F1FF3F37
:100C900004D1064B00221A6000E000BF0837BD46B1
:100CA00080BD00BF180200241402002400000024AC
:100CB00080B586B002AFFFF7B7FFAA4B93F90030BB
:100CC000012B1AD10421A84800F05AFBA54B93F937
:100CD0000030A44A527811461846FFF7A9FE034691
:100CE0001A46A04B1A709F4B93F90030B3F1FF3FA7
:100CF00003D19E4B00221A606AE29A4B93F90030AE
:100D0000022B1AD104219A4800F03AFB954B93F933
:100D10000030944A527811461846FFF789FE034680
:100D20001A46904B1A708F4B93F90030B3F1FF3F86
:100D300003D18E4B00221A604AE28A4B93F90030AD
:100D4000042B37D1874B9B68864A5178854A526875
:100D50001846FFF76DFD0346FB73FB7B012B03D1A8
:100D6000824B00221A6033E2FB7B002B0BD0012167
:100D70000120FFF729FE0346002B00F00E827B4B7B
:100D800000221A6024E2774B93F90030754A5278BA
:100D900011461846FFF74CFE03461A46714B1A706F
:100DA000704B93F90030B3F1FF3F03D16F4B00223A
:100DB0001A600DE26B4B93F90030032B37D1694B6E
:100DC0009868684B5A78674B5B680121FFF7BEFD56
:100DD0000346BB73BB7B012B03D1644B00221A601B
:100DE000F6E1BB7B002B0BD001210220FFF7ECFDCD
:100DF0000346002B00F0D3815C4B00221A60E7E130
:100E0000584B93F90030574A527811461846FFF76D
:100E10000FFE03461A46534B1A70524B93F900309B
:100E2000B3F1FF3F03D1514B00221A60D0E14D4B8B
:100E300093F90030052B40F054814A4B5B780D2B21
:100E400000F21D8101A252F823F000BF850E0008B8
:100E5000E70E00083B0F000829100008750F000876
:100E60009F0F0008CD0F000887100008BD0E000876
:100E70007F1000087F100008FB0F000857100008C3
:100E8000110F000800F0B2FF0346002B03D0374BD0
:100E900000221A609CE100F02CFB0346002B03D0DB
:100EA000324B00221A6093E100F032FE0346002B21
:100EB00000F0EB802D4B00221A6089E1294B9B68E2
:100EC000184600F006FB0346002B00F0E0800121ED
:100ED0000320FFF779FD0346002B00F06281234BCE
:100EE00000221A6074E11F4B9B68184600F030FB2B
:100EF0000346002B00F0CD8001210420FFF764FDA4
:100F00000346002B00F04F81184B00221A605FE16E
:100F1000144B9B68184600F04BFB0346002B00F077
:100F2000BA8001210420FFF74FFD0346002B00F09B
:100F30003C810E4B00221A604AE10A4B9B6818461E
:100F400000F048FB0346002B00F0A780012105209C
:100F5000FFF73AFD0346002B00F02981034B0022E6
:100F60001A6035E118020024200200240000002449
:100F70001C020024984B9B68184600F0B9FD0346FC
:100F8000002B00F08C8001210820FFF71DFD034697
:100F9000002B00F00E81914B00221A6018E18E4B5D
:100FA0009B688D4A52681146184600F0B9FD034609
:100FB000002B76D001210920FFF706FD0346002B08
:100FC00000F0F980854B00221A6001E1824B9B689A
:100FD000814A52681146184600F0B3FD0346002BC3
:100FE00061D001210A20FFF7EFFC0346002B00F03F
:100FF000E4807A4B00221A60EAE0774B9B68764ADD
:1010000052681146184600F05FFC0346002B4CD096
:1010100001210720FFF7D8FC0346002B00F0CF800A
:101020006E4B00221A60D3E06B4B9B686A4A526891
:101030001146184600F004FC0346002B37D001216E
:101040000620FFF7C1FC0346002B00F0BA80634B7B
:1010500000221A60BCE0604B9B68184600F0D0FA92
:101060000346002B25D001210B20FFF7ADFC0346E2
:10107000002B00F0A880594B00221A60A8E0574BC3
:1010800000221A60A4E000BF14E000BF12E000BF1D
:1010900010E000BF0EE000BF0CE000BF0AE000BFA0
:1010A00008E000BF06E000BF04E000BF02E000BFB0
:1010B00000E000BF484B93F90030474A5278114690
:1010C0001846FFF7B5FC03461A46434B1A70424BCD
:1010D00093F90030B3F1FF3F03D1404B00221A6077
:1010E00076E03D4B93F90030062B3BD10023BB60EB
:1010F000394B9868384B5A78374B5968BB6800931E
:101100000B460221FFF7E6FB0346FB71FB79012B3F
:1011100003D1324B00221A605AE0FB79002B0AD02F
:1011200001210220FFF750FC0346002B4DD02B4B32
:1011300000221A604CE0284B93F90030264A52787E
:1011400011461846FFF774FC03461A46224B1A70E4
:10115000214B93F90030B3F1FF3F03D11F4B002225
:101160001A6035E01C4B93F90030072B2FD11A4B36
:101170005B78092B2BD00123BB71BB79194600206A
:10118000FFF722FC0346002B03D0144B00221A6009
:101190001EE0114B00221A7019E000BF18E000BFDA
:1011A00016E000BF14E000BF12E000BF10E000BF77
:1011B0000EE000BF0CE000BF0AE000BF08E000BF87
:1011C00006E000BF04E000BF02E000BF00E000BF97
:1011D0001037BD4680BD00BF180200240000002467
:1011E00080B582B000AF0023FB71FFF761FD0B4BB0
:1011F0001B68002B09D00A4B1B68002B02D0FF2371
:10120000FB7104E00023FB7101E00123FB7197F9FE
:10121000073018460837BD4680BD00BF00000024D7
:101220001402002480B582B000AF8621104800F07F
:1012300047FD0346002B01D1012314E00C4B1B6832
:10124000184600F04FFD78600A4A7B6813607B689F
:101250000133094A1360094B00221A80054B1B68B1
:1012600000221A70002318460837BD4680BD00BF13
:101270002C0200243802002430020024340200240E
:1012800080B500AF00F00CFD03461A4601239A42D8
:1012900001D0012302E0FFF7C5FF0346184680BDD9
:1012A00080B500AF0D4B1A680D4B1B8801339BB204
:1012B0001946104600F024FD03461A4600239A42C0
:1012C00001D1032307E0FFF7ADFF0346002B01D058
:1012D000032300E00023184680BD00BF2C02002439
:1012E0003402002480B586B000AF786039600023F6
:1012F000FB757B683B6137E01F4B1B88802B08D157
:10130000FFF7CEFF0346FB75FB7D002B01D0FB7D75
:101310002EE0194B1B88C3F18003FB81FB893A68DF
:101320009A4202D83B689BB200E0FB89BB60134B3A
:101330001B68BA6839691846FFF786F93A68BB68CE
:10134000D31A3B60BB689AB20B4B1B8813449AB20A
:10135000094B1A803A69BB6813443B61074B1A6812
:10136000BB681344054A13603B68002BC4D1FB7D66
:1013700018461837BD4680BD3402002430020024D0
:1013800080B588B000AF786039600023FB76002319
:10139000FB617B687B613DE0224B1B88002B2ED0DC
:1013A000204B1B881A463B68934202D83B689BB28D
:1013B00001E01C4B1B887B82FB697A6913441A4A43
:1013C00011687A8A1846FFF73FF9164B1A887B8A0C
:1013D000D31A9AB2134B1A80134B1A687B8A1344A0
:1013E000114A13607B8A3A68D31A3B603B68002B32
:1013F00001D1FB7E12E07B8AFA691344FB61094943
:10140000094800F00FFCF860FB68B3F1FF3F01D121
:10141000012303E03B68002BBED1FB7E184620373A
:10142000BD4680BD3C0200244002002480B582B04D
:1014300000AF0346FB71FB79002B04D00A4B1B68FD
:1014400002221A7003E0084B1B6801221A70FFF792
:1014500027FF0346032B01D1032300E00023184696
:101460000837BD4680BD00BF3802002480B500AFFC
:1014700000F01EFC00BF80BD80B582B000AF786078
:1014800039603968786800F06DFB034601229342A9
:1014900001D001230EE0FFF7F3FE0346002B01D03D
:1014A000012307E000F0E2FF0346002B01D00123F7
:1014B00000E0002318460837BD4680BD80B500AF68
:1014C000FFF7D4FF00F0E2FF00F066FB00231846B0
:1014D00080BD80B483B000AF78607B68002B01D002
:1014E000022300E0002318460C37BD465DF8047B5C
:1014F000704780B582B000AF0823FB71FB1D01214E
:101500001846FFF7EFFE0346002B01D003231AE035
:101510000123FB71FB1D01211846FFF7E3FE034683
:10152000002B01D003230EE00423FB71FB79FB7138
:10153000FB1D01211846FFF7D5FE0346002B01D005
:10154000032300E0002318460837BD4680BD000095
:1015500080B584B000AF78600023FB730023BB60CC
:1015600009E0104ABB689B0013444FF000021A6068
:10157000BB680133BB60BB68052BF2D97B68002BCD
:1015800008D1094B1B68094A12681146184608F031
:1015900099FD01E00223FB73FB7B18461037BD4623
:1015A00080BD00BFBC020024040000240800002409
:1015B00080B485B000AF78600023FB737B68002B9C
:1015C00001D00223FB73FB7B18461437BD465DF840
:1015D000047B704780B584B000AF78600023FB7354
:1015E0007B68002B03D1054805F004FF01E00223CE
:1015F000FB73FB7B18461037BD4680BDD802002424
:1016000080B485B000AF78600023FB737B68002B4B
:1016100001D00223FB73FB7B18461437BD465DF8EF
:10162000047B704780B491B000AFF8607A603B6093
:101630000B46FB72002387F83F303B6800221A609C
:10164000FB68002B05D0022387F83F3097F83F3026
:10165000BAE0FB7A032B40F0B1805E4B1B68002B95
:1016600040F0A8800023BB635B4B7B635B4ABB6B92
:101670000C2142F83310BB6B5A1CBA63574ADB008B
:1016800013447A6B5A60564B3B63544ABB6B0C2134
:1016900042F83310BB6B5A1CBA63504ADB00134448
:1016A0003A6B5A604F4BFB624C4ABB6B0C2142F8C1
:1016B0003310BB6B5A1CBA63484ADB001344FA6A06
:1016C0005A60494BBB62454ABB6B242142F8331038
:1016D000BB6B5A1CBA63414ADB001344BA6A5A60B6
:1016E000424B7B623D4ABB6B0C2142F83310BB6B13
:1016F0005A1CBA63394ADB0013447A6A5A603C4B7D
:101700003B62364ABB6B0C2142F83310BB6B5A1C50
:10171000BA63324ADB0013443A6A5A60354BFB61C4
:101720002E4ABB6B0C2142F83310BB6B5A1CBA63B8
:101730002A4ADB001344FA695A602F4BBB61274ADF
:10174000BB6B042142F83310BB6B5A1CBA63234AAB
:10175000DB001344BA695A60284B7B611F4ABB6B9C
:10176000042142F83310BB6B5A1CBA631B4ADB00DE
:1017700013447A695A60224B3B61184ABB6B0421BF
:1017800042F83310BB6B5A1CBA63144ADB00134493
:101790003A695A60114ABB6B002142F83310BB6BA7
:1017A0005A1CBA630D4ADB00134400225A60094BED
:1017B00001221A603B68094A1A6003E0012387F896
:1017C0003F3000BF97F83F3018464437BD465DF8BC
:1017D000047B704704040024440200247C0300249A
:1017E000500200245C020024680200248C020024C1
:1017F00098020024A4020024B0020024B4020024B1
:10180000B802002480B487B000AFF8607A603B6013
:101810000B46FB720023FB753B6800221A60FB68D5
:10182000002B03D00223FB75FB7D02E00123FB7537
:10183000FB7D18461C37BD465DF8047B70470000F1
:1018400080B58AB008AF786039607B68002B01D022
:1018500002231CE03B68012B18D10F4B07930F4B61
:1018600006930F4B05930F4B04930F4B03930F4BB2
:1018700002930F4B01930F4B00930F4B0F4A1049EC
:10188000104805F0C7FD00BF002300E00123184603
:101890000837BD4680BD00BFD8020024BC0200242A
:1018A000B8020024B4020024B0020024A4020024E0
:1018B000980200248C020024680200245C020024A8
:1018C000500200244402002480B483B000AF78604A
:1018D00039607B68002B01D0022300E0002318460A
:1018E0000C37BD465DF8047B7047000080B58CB0B6
:1018F00000AFF8607A603B600B46FB72002387F80C
:101900002F303B6800221A60FB68002B05D00223B1
:1019100087F82F3097F82F30D7E0FB7A032B4AD087
:10192000032B00F3CC80012B03D0022B00F0858029
:10193000C5E0684B1B68002B20D10023BB61664BC0
:101940007B61664ABB69182142F83310BB695A1C97
:10195000BA61624ADB0013447A695A605F4ABB6924
:10196000002142F83310BB695A1CBA615B4ADB00A4
:10197000134400225A60574B01221A60012107F1DB
:101980003800FFF7AFFC0346002B01D003239CE097
:1019900097F83830092B0AD107F13C030421184687
:1019A000FFF7A0FC0346002B01D003238DE03B682A
:1019B0004A4A1A6087E04A4B1B68002B20D100235B
:1019C000BB62454B7B62474ABB6A182142F8331021
:1019D000BB6A5A1CBA62434ADB0013447A6A5A60F3
:1019E000404ABB6A002142F83310BB6A5A1CBA62F3
:1019F0003C4ADB00134400225A60394B01221A6032
:101A0000012107F13800FFF76DFC0346002B01D0E0
:101A100003235AE097F83830092B0AD107F13C0329
:101A200004211846FFF75EFC0346002B01D0032378
:101A30004BE03B682B4A1A6045E02B4B1B68002BA0
:101A400020D100233B62244BFB61284A3B6A1821CA
:101A500042F833103B6A5A1C3A62244ADB001344B2
:101A6000FA695A60214A3B6A002142F833103B6A06
:101A70005A1C3A621D4ADB00134400225A601A4B7A
:101A800001221A60012107F13800FFF72BFC034601
:101A9000002B01D0032318E097F83830092B0AD126
:101AA00007F13C0304211846FFF71CFC0346002BFA
:101AB00001D0032309E03B680C4A1A6003E00123CC
:101AC00087F82F3000BF97F82F3018463037BD46C3
:101AD00080BD00BF08040024BC020024E4030024ED
:101AE0000C040024D403002410040024F403002474
:101AF00080B483B000AF78607B68002B01D00223F4
:101B000000E0002318460C37BD465DF8047B7047A3
:101B100080B400AF00231846BD465DF8047B7047D3
:101B200080B483B000AF786039607B68002B01D04F
:101B3000022300E0012318460C37BD465DF8047B04
:101B4000704780B483B000AF786039607B68002B49
:101B500001D0022300E0012318460C37BD465DF892
:101B6000047B704780B582B000AF78603960396817
:101B7000786800F035FD0346064A1360054B1B6884
:101B8000B3F1FF3F01D1002300E0012318460837DD
:101B9000BD4680BD1404002480B500AF064B1B6811
:101BA000184600F07FFD0346002B01D1012300E021
:101BB0000023184680BD00BF1404002480B588B0FF
:101BC00000AF78600B46FB7013463B80FB78FB73DD
:101BD0003B88FB61FB690533BB61FB69BB607B68CC
:101BE0007B617B69002B01D1002315E0FA7B7B69C7
:101BF0001A707B690133BA681A60094B1B68BA69AD
:101C00007969184600F08EF838613B69B3F1FF3FFF
:101C100001D1002300E0012318462037BD4680BDD6
:101C20001404002480B586B000AF786039600023CA
:101C30003B61194B1B6807F10F010122184600F0A8
:101C4000A3F878617B69B3F1FF3F01D100231EE067
:101C5000114B1B6807F110010422184600F094F89C
:101C600078617B69B3F1FF3F01D100230FE00A4B9C
:101C70001B683A690949184600F086F878617B6864
:101C8000064A1A603B699AB23B681A8001231846DB
:101C90001837BD4680BD00BF14040024180400247A
:101CA00080B400AF01231846BD465DF8047B704741
:101CB00080B400AF00BFBD465DF8047B70470000F4
:101CC00080B483B000AF78600B467B807B68044AA9
:101CD0001A60012318460C37BD465DF8047B704737
:101CE000A004002480B483B000AF7860034B184692
:101CF0000C37BD465DF8047B704700BFA504002487
:101D000080B582B000AF78600B467B807B881A4636
:101D100001217868FFF752FF0346DBB21846083707
:101D2000BD4680BD80B58AB000AFF860B9607A600A
:101D300000237B62BB683B624FF0FF33FB611BE01B
:101D40007A68FB69934228BF1346BB6107F114030D
:101D5000BA69396AF86800F065FC78627B6AB3F1A9
:101D6000FF3F01D17B6A0BE07B697A68D31A7B6005
:101D70007B693A6A13443B627B68002BE0D17B6A43
:101D800018462837BD4680BD80B58AB000AFF860E0
:101D9000B9607A6000237B62BB683B624FF0FF331F
:101DA000FB611BE07A68FB69934228BF1346BB6165
:101DB00007F11403BA69396AF86800F04FFC7862D9
:101DC0007B6AB3F1FF3F01D17B6A0BE07B697A68E4
:101DD000D31A7B607B693A6A13443B627B68002BB1
:101DE000E0D17B6A18462837BD4680BD80B500AF7C
:101DF00000F008F80346002B01D0012300E0002387
:101E0000184680BD80B582B000AF0323BB7108F0D7
:101E10002BFA00F02EF80346FB71FB79002B01D062
:101E2000FB7922E000F044F80346FB71FB79002BBC
:101E300001D0FB7919E000F09FF80346FB71FB79B4
:101E4000002B01D0FB7910E0BB1D0121184600F0EA
:101E500097FA0346FB71FB79002B01D0FB7904E074
:101E600000F0E4FA0346FB71FB7918460837BD46DB
:101E700080BD80B582B000AF0123BB71BB1D0121C5
:101E8000184600F07DFA0346FB71FB79002B01D068
:101E9000FB7909E000F0CAFA0346FB71FB79002BDD
:101EA00001D0FB7900E0FB7918460837BD4680BDBC
:101EB00090B583B000AF0223BB71BB1D0121184652
:101EC00000F05EFA0346FB71FB79002B01D0FB7931
:101ED00045E00023BB71BB1D0121184600F050FAFC
:101EE0000346FB71FB79002B01D0FB7937E01E4BD9
:101EF0005B6BDAB21D4B1A7001211C4800F040FAEE
:101F00000346FB71FB79002B01D0FB7927E0174BCF
:101F10001B78002B19D0144B5B6BD9B2144B5B6B45
:101F2000DCB2144B1A785B781B021343002063F376
:101F30000F0023460A46012100F0CEF90346FB714B
:101F4000FB79002B01D0FB7909E000F06FFA034622
:101F5000FB71FB79002B01D0FB7900E0FB7918467F
:101F60000C37BD4690BD00BF640000242605002448
:101F700028C200081406002480B582B000AF0023F8
:101F8000FB700023BB70BB1C0121184600F0F8F960
:101F90000346FB70FB78002B01D0FB7835E0002373
:101FA0007B6025E01B4B1B885A1D1B4B1B689A420C
:101FB0000FD900F03BFA0346FB70FB78002B01D0F1
:101FC000FB7822E0BB1C0121184600F0D9F903463A
:101FD000FB707B68DBB2184600F020F80346FB700C
:101FE000FB78002B01D0FB780FE07B6801337B602E
:101FF0007B68112BD6DD00F019FA0346FB70FB78E5
:10200000002B01D0FB7800E0FB7818460837BD466E
:1020100080BD00BF300500240C00002480B584B0D2
:1020200000AF0346FB71FB79112B00F2478101A23F
:1020300052F823F07D20000899200008BD200008F8
:10204000D9200008A9210008212100084521000805
:1020500061210008C521000885210008FD20000835
:1020600005220008E1210008212200083D22000885
:10207000592200087D22000899220008934B1B6812
:10208000DAB2934B1B68DBB292480021006800F083
:1020900023F90346FB7314E18C4B5B68DAB28C4B7B
:1020A0005B68D9B28B4B5B88002063F30F000B4653
:1020B000012100F011F90346FB7302E1834B9B6899
:1020C000DAB2834B9B68DBB282480221406800F0A1
:1020D00003F90346FB73F4E07C4BDB68DAB27C4B1C
:1020E000DB68D9B27B4BDB88002063F30F000B4623
:1020F000032100F0F1F80346FB73E2E0734B1B6B26
:10210000DAB2734B1B6BD9B2724B5B8B002063F35B
:102110000F000B460A2100F0DFF80346FB73D0E006
:102120006A4B5B69DAB26A4B5B69D9B2694B5B890E
:10213000002063F30F000B46052100F0CDF80346A5
:10214000FB73BEE0614B9B69DAB2614B9B69DBB20A
:1021500060480621C06800F0BFF80346FB73B0E09A
:102160005A4BDB69DAB25A4BDB69D9B2594BDB897E
:10217000002063F30F000B46072100F0ADF8034683
:10218000FB739EE0514B5B6ADAB2514B5B6AD9B28A
:10219000504B5B8A002063F30F000B46092100F0CF
:1021A0009BF80346FB738CE0484B1B69DAB2484B43
:1021B0001B69DBB247480421806800F08DF80346B4
:1021C000FB737EE0414B1B6ADAB2414B1B6ADBB208
:1021D00040480821006900F07FF80346FB7370E077
:1021E0003A4B93F829203A4B93F82910394BDB8A64
:1021F000002063F30F000B460C2100F06DF803463E
:10220000FB735EE0314BDB6ADAB2314BDB6ADBB287
:1022100030480B21806900F05FF80346FB7350E003
:102220002A4B93F828202A4B93F8283029480D216F
:10223000406900F051F80346FB7342E0234BDB6B2F
:10224000DAB2234BDB6BDBB222480E21C06900F00F
:1022500043F80346FB7334E01C4B1B6CDAB21C4B97
:102260001B6CD9B21B4BDB8B002063F30F000B46BA
:102270000F2100F031F80346FB7322E0134B5B6C37
:10228000DAB2134B5B6CDBB212481021006A00F02B
:1022900023F80346FB7314E00C4B9B6CDAB20C4B37
:1022A0009B6CD9B20B4B5B8C002063F30F000B4689
:1022B000112100F011F80346FB7302E00223FB73C7
:1022C00000BFFB7B18461037BD4680BD640000246C
:1022D00028C20008EC05002480B584B000AFB880A7
:1022E000084611461A460346FB700B46BB70134660
:1022F0007B70FB1C0121184600F042F80346FB737B
:10230000FB7B002B01D0FB7B36E03B79BB7307F1F5
:102310000E030121184600F033F80346FB73FB7BE4
:10232000002B01D0FB7B27E07B79BB7307F10E0309
:102330000121184600F024F80346FB73FB7B002BB9
:1023400001D0FB7B18E0BB1C0121184600F018F8F7
:102350000346FB73FB7B002B01D0FB7B0CE07B1C5B
:102360000121184600F00CF80346FB73FB7B002BA1
:1023700001D0FB7B00E0FB7B18461037BD4680BDDB
:1023800080B584B000AF786039600023FB733B6890
:10239000BB60134B1B881A46BB681A44114B1B6861
:1023A0009A4203D90223FB73FB7B15E00E4B1B689B
:1023B000BA6879681846FEF747F9BB689AB2084BC5
:1023C0001B8813449AB2064B1A80074B1A68BB68E5
:1023D0001344054A1360FB7B18461037BD4680BD89
:1023E000300500240C0000242C05002480B500AF2B
:1023F00020210B4800F060F80346002B01D1012397
:102400000BE0074B1B68184600F068F80346054AC6
:102410001360054B00221A800023184680BD00BFC0
:10242000280500242C0500243005002480B500AFC9
:102430000C4B1B680C4A12881146184600F05CF8D9
:1024400003461A4600239A4201D1022307E0FFF710
:10245000CDFF0346002B01D0022300E000231846E5
:1024600080BD00BF280500243005002480B500AFE2
:1024700000F012F803461A4601239A4201D00123C4
:1024800002E0FFF7B3FF0346184680BD80B500AFFA
:1024900000F00AF800BF80BD80B400AF01231846E9
:1024A000BD465DF8047B704780B400AF00BFBD46F9
:1024B0005DF8047B7047000080B483B000AF7860A3
:1024C0000B467B807B68044A1A60012318460C3750
:1024D000BD465DF8047B70473405002480B483B0AA
:1024E00000AF7860034B18460C37BD465DF8047B9F
:1024F000704700BF3905002480B582B000AF786016
:102500000B467B807B881A4603217868FFF756FBD1
:102510000346DBB218460837BD4680BD80B586B09D
:1025200000AF0023FB7500233B6101237B60002388
:10253000FB600023BB60B968F868FEF79DFF0346A7
:10254000FB7597F91730002B14BF01230023DBB272
:102550003B6118E0FEF744FE0346FB7597F9173020
:10256000002B10D097F91730B3F1FF3F09D1FEF7D8
:10257000A5FF0346002B14BF01230023DBB23B6100
:1025800001E001233B617B68002B02D03B69002BFB
:10259000E0D03B69002B03D000BF7B68002BFCD14F
:1025A00097F9173018461837BD4680BD80B582B000
:1025B00000AF04F0D9F902F0D5F801F0ADFA02F05D
:1025C000F2F902F007FA02F049F902F0E5F9FFF733
:1025D000A5FF78607B6818460837BD4680BD0000BF
:1025E00080B584B000AF786039600023FB60094B90
:1025F000094A1A60074B1B68084AD361074801F073
:1026000079F80346064A1360FB6818461037BD4642
:1026100080BD00BF580500240000003010000024D9
:102620005405002480B586B002AFF860B9607A60C6
:102630003B603B6800221A60074B18683B680093B8
:102640004FF47A737A68B96801F04EF9002318469E
:102650001037BD4680BD00BF5405002480B586B04C
:1026600000AFF860B9607A603B603B6800221A6096
:102670000B4B1B6800227968184600F05AFD786100
:102680007B69002B06D0064B18683B687A69B968ED
:1026900001F0FCF8002318461837BD4680BD00BF86
:1026A0005405002480B582B000AF7860044B1B68ED
:1026B000184601F0DBF9002318460837BD4680BDF7
:1026C0005405002480B400AF044BDB681B0A03F000
:1026D00007031846BD465DF8047B704700ED00E037
:1026E00080B483B000AF0346FB80B7F90630002BFF
:1026F0000BDBFB8803F01F020749B7F906305B09C3
:10270000012000FA02F241F8232000BF0C37BD4639
:102710005DF8047B704700BF00E100E080B483B047
:1027200000AF03463960FB80B7F90630002B0ADBA7
:102730003B68DAB20C49B7F906301201D2B20B4449
:1027400083F800230AE03B68DAB20849FB8803F00B
:102750000F03043B1201D2B20B441A7600BF0C37B0
:10276000BD465DF8047B704700E100E000ED00E04D
:1027700080B489B000AFF860B9607A60FB6803F09C
:102780000703FB61FB69C3F10703042B28BF042384
:10279000BB61FB690433062B02D9FB69033B00E0F4
:1027A00000237B614FF0FF32BB6902FA03F3DA4387
:1027B000BB681A407B699A404FF0FF317B6901FA90
:1027C00003F3D9437B680B40134318462437BD46B7
:1027D0005DF8047B7047000080B485B000AF78607E
:1027E00039607B68FB600C4A3B6813441B781A46CF
:1027F000FB6813441B6808493A680A44127811467A
:10280000FA680A4443F00103136000BF1437BD4661
:102810005DF8047B704700BF24BF000880B485B01A
:1028200000AF786039607B68FB600C4A3B681344FA
:102830001B781A46FB6813441B6808493A680A4427
:1028400012781146FA680A4423F00103136000BFAE
:102850001437BD465DF8047B704700BF24BF0008F5
:1028600080B485B000AF786039607B68FB60084A4F
:102870003B6813441B781A46FB6813441B6803F437
:10288000907318461437BD465DF8047B704700BF4F
:1028900024BF000880B487B000AFF860B9607A60E8
:1028A000FB687B610D4ABB6813441B781A467B6941
:1028B00013445A680A4B13400849BA680A4412780C
:1028C00011467A690A4411467A6813434B6000BF87
:1028D0001C37BD465DF8047B704700BF24BF00086D
:1028E0000000FFFF80B485B000AF786039607B687E
:1028F000FB60074A3B6813441B781A46FB68134485
:102900005B689BB218461437BD465DF8047B704780
:1029100024BF000880B487B000AFF860B9607A6067
:102920003B60FB687B613B6A402B14D1174ABB6854
:1029300013441B781A467B6913441A467B68D3609C
:10294000124ABB6813441B781A467B6913441A4623
:102950003B68936013E00D4ABB6813441B781A462A
:102960007B6913441A467B689360084ABB6813442A
:102970001B781A467B6913441A463B68D36000BF34
:102980001C37BD465DF8047B704700BF24BF0008BC
:1029900080B483B000AF78607B681B6803F02003CD
:1029A000202B01D1012300E0002318460C37BD463F
:1029B0005DF8047B704780B483B000AF78607B68BB
:1029C00020229A6000BF0C37BD465DF8047B70473B
:1029D00080B485B000AF786039607B68FB600C4ADA
:1029E0003B6813441B781A46FB6813441B6808496C
:1029F0003A680A4412781146FA680A4443F0100310
:102A0000136000BF1437BD465DF8047B704700BFFC
:102A100024BF000880B485B000AF786039607B685F
:102A2000FB600C4A3B6813441B781A46FB6813444E
:102A30001B6808493A680A4412781146FA680A4441
:102A400023F01003136000BF1437BD465DF8047B0C
:102A5000704700BF24BF000880B485B000AF786025
:102A600039607B68FB600A4A3B6813441B781A464E
:102A7000FB6813441B6803F01003102B01D10123E2
:102A800000E0002318461437BD465DF8047B70470C
:102A900024BF000880B483B000AF78607B681B68F7
:102AA00043F001027B681A6000BF0C37BD465DF839
:102AB000047B704780B483B000AF78607B681B688C
:102AC00023F001027B681A6000BF0C37BD465DF839
:102AD000047B704780B483B000AF78607B685B682C
:102AE00003F48013B3F5801F01D1012300E000231C
:102AF00018460C37BD465DF8047B704780B483B040
:102B000000AF78607B68DB6903F00103012B01D122
:102B1000012300E0002318460C37BD465DF8047B16
:102B2000704780B483B000AF78607B68DB6903F0E6
:102B30000203022B01D1012300E0002318460C37C9
:102B4000BD465DF8047B704780B483B000AF786009
:102B50007B68DB6903F00403042B01D1012300E04F
:102B6000002318460C37BD465DF8047B704780B4DF
:102B700083B000AF78607B68DB6903F00803082B43
:102B800001D1012300E0002318460C37BD465DF853
:102B9000047B704780B483B000AF78607B68DB69EA
:102BA00003F04003402B01D1012300E0002318462D
:102BB0000C37BD465DF8047B704780B483B000AF2E
:102BC00078607B68DB6903F08003802B01D10123EF
:102BD00000E0002318460C37BD465DF8047B7047C3
:102BE00080B483B000AF78607B68DB6903F4804316
:102BF000B3F5804F01D1012300E0002318460C37C4
:102C0000BD465DF8047B704780B483B000AF786048
:102C10007B68DB6903F40043B3F5004F01D1012366
:102C200000E0002318460C37BD465DF8047B704772
:102C300080B483B000AF78607B6801221A6200BF65
:102C40000C37BD465DF8047B704780B483B000AF9D
:102C500078607B6802221A6200BF0C37BD465DF8BF
:102C6000047B704780B483B000AF78607B68042237
:102C70001A6200BF0C37BD465DF8047B704780B414
:102C800083B000AF78607B6808221A6200BF0C37FF
:102C9000BD465DF8047B704780B483B000AF7860B8
:102CA0007B6810221A6200BF0C37BD465DF8047BBA
:102CB000704780B489B000AF78607B68FB60FB68C8
:102CC00053E8003FBB60BB6843F02003FB617B68B7
:102CD000FA69BA617B617969BA6941E800233B61AD
:102CE0003B69002BE9D100BF00BF2437BD465DF82A
:102CF000047B704780B489B000AF78607B68FB606C
:102D0000FB6853E8003FBB60BB6843F48073FB6122
:102D10007B68FA69BA617B617969BA6941E8002325
:102D20003B613B69002BE9D100BF00BF2437BD46A2
:102D30005DF8047B704780B489B000AF78607B6831
:102D40000833FB60FB6853E8003FBB60BB6843F09F
:102D50000103FB617B680833FA69BA617B617969B9
:102D6000BA6941E800233B613B69002BE7D100BF12
:102D700000BF2437BD465DF8047B704780B489B03E
:102D800000AF78607B68FB60FB6853E8003FBB6086
:102D9000BB6823F01003FB617B68FA69BA617B6151
:102DA0007969BA6941E800233B613B69002BE9D1AD
:102DB00000BF00BF2437BD465DF8047B704780B478
:102DC00089B000AF78607B68FB60FB6853E8003F28
:102DD000BB60BB6823F02003FB617B68FA69BA61C2
:102DE0007B617969BA6941E800233B613B69002B4B
:102DF000E9D100BF00BF2437BD465DF8047B7047B2
:102E000080B489B000AF78607B68FB60FB6853E8F2
:102E1000003FBB60BB6823F08003FB617B68FA69FD
:102E2000BA617B617969BA6941E800233B613B691A
:102E3000002BE9D100BF00BF2437BD465DF8047BFD
:102E4000704780B489B000AF78607B68FB60FB6836
:102E500053E8003FBB60BB6823F48073FB617B6871
:102E6000FA69BA617B617969BA6941E800233B611B
:102E70003B69002BE9D100BF00BF2437BD465DF898
:102E8000047B704780B489B000AF78607B680833FA
:102E9000FB60FB6853E8003FBB60BB6823F00103A5
:102EA000FB617B680833FA69BA617B617969BA6949
:102EB00041E800233B613B69002BE7D100BF00BF25
:102EC0002437BD465DF8047B704780B489B000AFFD
:102ED00078607B680833FB60FB6853E8003FBB60A9
:102EE000BB6843F04003FB617B680833FA69BA6151
:102EF0007B617969BA6941E800233B613B69002B3A
:102F0000E7D100BF00BF2437BD465DF8047B7047A2
:102F100080B489B000AF78607B680833FB60FB68E1
:102F200053E8003FBB60BB6823F04003FB617B6854
:102F30000833FA69BA617B617969BA6941E80023AB
:102F40003B613B69002BE7D100BF00BF2437BD4682
:102F50005DF8047B704780B489B000AF78607B680F
:102F60000833FB60FB6853E8003FBB60BB6843F07D
:102F70008003FB617B680833FA69BA617B61796918
:102F8000BA6941E800233B613B69002BE7D100BFF0
:102F900000BF2437BD465DF8047B704780B489B01C
:102FA00000AF78607B680833FB60FB6853E8003F44
:102FB000BB60BB6823F08003FB617B680833FA6960
:102FC000BA617B617969BA6941E800233B613B6979
:102FD000002BE7D100BF00BF2437BD465DF8047B5E
:102FE000704780B485B000AF786039603B68002BD3
:102FF00003D17B682833FB6002E07B682433FB60ED
:10300000FB6818461437BD465DF8047B704780B4F2
:1030100083B000AF78607B685B6ADBB218460C3720
:10302000BD465DF8047B704780B483B000AF786024
:103030000B46FB70FA787B689A6200BF0C37BD467E
:103040005DF8047B704780B483B000AF78607B6824
:103050009B6943F001027B689A6100BF0C37BD4653
:103060005DF8047B704780B586B000AF78607B6800
:1030700093F83C30FB737B689B7D03F00403002BCB
:1030800003D07B681B6B7B610DE07B685A687B68B3
:103090001B7C19461046FFF725FCB8607B685A6A0E
:1030A000BB68D31A7B617B685B6A7A699A4201D1FB
:1030B00000237B61FB7B012B14D17B689B7D03F09C
:1030C0001003002B0ED07B68DB6A7A699A4209D91B
:1030D0007B681B8B43F020039AB27B681A837B6862
:1030E0007A69DA627B68DB6A7A699A4205D97B6819
:1030F000DB6A7A69D31A3B6116E07B68DB6A7A691E
:103100009A4208D27B685A6A7B68DB6AD31A7A696A
:1031100013443B6108E0FB7B012B03D17B685B6AB6
:103120003B6101E000233B613B6918461837BD460F
:1031300080BD80B588B000AFF860B9607A600023C8
:10314000BB61F868FFF78FFF0246BB68934215D951
:103150007B68002B12D003F057FC786100BFF86841
:10316000FFF781FF0246BB68934207D901217869C6
:1031700000F0FAFC02467B689342F0D2F868FFF751
:1031800072FFB861BA69BB689A4202D2BB69FB613F
:1031900001E0BB68FB61FB6918462037BD4680BD76
:1031A00080B586B000AFF860B9607A603B603B687C
:1031B00000221A600023FB82FB68DA6A7B681A44EB
:1031C000FB685B6A9A4227D9FB685A6AFB68DB6A2C
:1031D000D31A3B61FB68DA69FB68DB6A13443A691E
:1031E0001946B868FDF730FAFB68DA6A7B681A445A
:1031F000FB685B6AD21AFB68DA623B69BA68D0186E
:10320000FB68D969FB68DB6A1A46FDF71DFAFB68A3
:10321000002283F83C200FE0FB68DA69FB68DB6A78
:1032200013447A681946B868FDF70EFAFB68DA6A43
:103230007B681A44FB68DA62FB68DA6AFB685B6ADF
:103240009A4206D1FB680022DA62FB68002283F80A
:103250003C20F86800F082F90346FB823B687A68FC
:103260001A60FB8A18461837BD4680BD80B584B009
:1032700000AFF860B9607A60FB685A68FB681B7C35
:1032800019461046FFF7E8FB0346002B54D0FB68B5
:103290005A68BB68104698470346002B4CD0FB6821
:1032A0005A687B6810469847FB6893F83C30012BBE
:1032B00009D1FB681B8B43F020039AB2FB681A8389
:1032C000FB680022DA62FB68012283F83C20FB687D
:1032D0005A68FB681B7C19461046FFF7C1FA034683
:1032E000002B29D1FB681B7D002B0BD0FB681B7DBD
:1032F000012B21D1FB681B8B002B03D0FB681B8BA0
:10330000202B19D1FB685A68FB681B7C19461046B4
:10331000FFF784FAFB685868FB681B7C1946FB685A
:103320005B6A1A46FFF7B6FAFB685A68FB681B7CB3
:1033300019461046FFF750FA00BF1037BD4680BD52
:1033400080B584B000AF78600023FB737B681B6896
:103350001846FFF70CFC0346012B08D17B681B8B3A
:1033600043F002039AB27B681A830123FB737B68E4
:103370001B681846FFF7D5FB0346012B08D17B6875
:103380001B8B43F008039AB27B681A830123FB73FB
:103390007B681B681846FFF7D7FB0346012B08D153
:1033A0007B681B8B43F010039AB27B681A8301235E
:1033B000FB737B681B681846FFF7A0FB0346012BD5
:1033C00008D17B681B8B43F004039AB27B681A8395
:1033D0000123FB73FB7B012B32D17B681B7D012B0F
:1033E00015D17B689B7D03F00403002B0AD07B681A
:1033F0001B681846FFF7E3FC7B681B681846FFF75D
:10340000BDFC04E07B681B681846FFF781FD7B6804
:103410001B681846FFF70CFC7B681B681846FFF713
:103420002EFC7B681B681846FFF70FFC7B681B6847
:103430001846FFF717FC7B681B681846FFF72CFC43
:1034400000BF1037BD4680BD80B500AF0248FFF712
:1034500077FF00BF80BD00BF5C05002480B500AFD2
:10346000034A04490448FFF701FF00BF80BD00BFC5
:10347000B7290008912900085C050024B0B584B084
:1034800002AF78607B685C687B681B7C1D467B684C
:103490001B6801211846FFF7A4FD02467B68DB6923
:1034A0001946002300930B4629462046FFF732FABF
:1034B0007B6858687B681B7C19467B685B6A1A4688
:1034C000FFF7E8F97B685A687B681B7C1946104651
:1034D000FFF77EFA7B681B681846FFF7F6FC7B68EF
:1034E0001B689A687B681B6842F040029A607B68A0
:1034F0005A687B681B7C19461046FFF76DF900BFC0
:103500000837BD46B0BDF0B585B002AF78607B68C6
:103510009C687B685B7C1D467B681B6A1E467B68DB
:103520001B6800211846FFF75CFD0346402200920D
:10353000324629462046FFF7EDF97B689A687B689A
:103540005B7C19461046FFF743FA7B681B681846F8
:10355000FFF701FD00BF0C37BD46F0BD80B584B05C
:1035600000AF78600023FB817B681B8B03F0200396
:10357000002B0AD0FB8943F02003FB817B681B8B67
:1035800023F020039AB27B681A837B681B684F4A3A
:1035900093422CD07B681B684D4A934227D07B68AE
:1035A0001B684C4A934222D07B681B684A4A93426C
:1035B0001DD07B681B68494A934218D07B681B6802
:1035C000474A934213D07B681B68464A93420ED009
:1035D0007B681B68444A934209D07B681B68434A56
:1035E000934204D07B681B68414A934220D17B6898
:1035F0001B681846FFF76EFA0346002B18D07B684D
:103600001B681846FFF700FB0346002B10D07B68B1
:103610001B681846FFF7E4FA0346002B08D0FB8925
:1036200043F40073FB817B681B681846FFF70BFDB2
:103630007B681B7D002B08D17B681A8BFB891343A9
:10364000FB817B6800221A833AE07B681B7D012B9B
:1036500036D17868FFF707FD0346002B30D17B6831
:103660001B8B002B2CD07B681A8BFB891343FB81AF
:103670007B6800221A837B689B7D03F00403002B88
:103680000FD07B681B681846FFF7C1FC7B681B687E
:103690001846FFF7F4FA7B681B681846FFF709FB2A
:1036A0000EE07B681B681846FFF7B1FC7B681B685F
:1036B0001846FFF7E4FA7B681B681846FFF705FC1D
:1036C000FB8918461037BD4680BD00BF0010014081
:1036D0000044004000480040004C004000500040C2
:1036E0000014014000780040007C004000180140B8
:1036F000001C014080B584B000AF78607B681B6817
:103700001A46604B9A4202D15F4BFB6002E00023F5
:10371000FB6000BFFB68002B00F0AF80FB685A7DA8
:103720007B685B7D1343DAB2FB685A75FB689A7D50
:103730007B689B7D1343DAB2FB689A757B681A68D5
:10374000FB681A60FB6800221A83FB6800225A8318
:10375000FB681B681846FFF7ADF97B685B7D03F0DB
:103760000103002B3CD07B685A6AFB685A627B6875
:10377000DA69FB68DA61FB680022DA62FB68002222
:103780001A637B681A7DFB681A75FB68002283F850
:103790003C20FB689B7D03F01003002B15D07B6859
:1037A0005A68FB685A607B681A7CFB681A74F86870
:1037B000FFF764FEFB681B681846FFF7BCFAFB685E
:1037C0001B681846FFF796FA0AE0FB689B7D03F03A
:1037D0000403002B04D0FB681B681846FFF769FA46
:1037E0007B685B7D03F00203002B27D07B689A6A1D
:1037F000FB689A627B681A6AFB681A62FB6800229F
:103800005A63FB6800229A63FB6800229A74FB6883
:103810000022DA74FB689B7D03F02003002B0DD09F
:103820007B689A68FB689A607B685A7CFB685A746C
:10383000FB680022DA60F868FFF765FEFB681B682A
:103840001846FFF727F97B681B681A460D4B9A420A
:1038500010D1FEF737FF0346002200211846FEF77D
:1038600087FF034619462720FEF758FF2720FEF75B
:1038700037FF02E00023FB6000BFFB6818461037EB
:10388000BD4680BD004800405C05002480B586B080
:1038900000AFF860B9607A603B603B6800221A6054
:1038A000FB685B8B03F48073002B02D04FF48073B2
:1038B00016E0FB685B8B43F480739AB2FB685A8313
:1038C0003B687A68B968F868FFF76AFC0346FB82D0
:1038D000FB685B8B23F480739AB2FB685A83FB8A84
:1038E00018461837BD4680BD80B588B000AFF86077
:1038F000B9607A603B60BB6A00221A60BB68BB613A
:10390000FB685B8B03F08003002B01D08023A9E0D0
:10391000FB685B8B43F080039AB2FB685A830023F9
:10392000FB6100237B610023FB614AE0FB681B68AD
:103930001846FFF742F90346002B36D13B68002BAF
:1039400027D003F061F8786100BFFB681B68184658
:10395000FFF733F90346002B07D10121786900F006
:1039600003F902463B689342EFD20121786900F0E7
:10397000FBF802463B68934217D2BB6AFA691A60A9
:10398000FB685B8B23F080039AB2FB685A83402369
:1039900068E0BB6AFA691A60FB685B8B23F08003FE
:1039A0009AB2FB685A8340235CE0FB681868BA69E6
:1039B000FB6913441B781946FFF736FBFB6901339B
:1039C000FB61FA697B689A42B0D3FB681B681846B2
:1039D000FFF7E0F80346002B39D13B68002B29D0D4
:1039E00003F012F8786114E00121786900F0BCF866
:1039F00002463B6893420CD27B685A1EBB6A1A602F
:103A0000FB685B8B23F080039AB2FB685A834023E8
:103A100028E0FB681B681846FFF7BCF80346002B3C
:103A200015D10121786900F09FF802463B68934266
:103A3000DAD20CE07B685A1EBB6A1A60FB685B8BAB
:103A400023F080039AB2FB685A8340230AE0BB6AE2
:103A50007A681A60FB685B8B23F080039AB2FB687C
:103A60005A83002318462037BD4680BD80B582B0FA
:103A700000AF78607B681B681846FFF71BF87B680F
:103A80009B7D03F02003002B0DD07B689A687B6838
:103A90005B7C19461046FEF7BDFF7B681B68184625
:103AA000FFF77CFA0AE07B689B7D03F00803002B9C
:103AB00004D07B681B681846FFF7A2F97B689B7DE2
:103AC00003F01003002B17D07B681B681846FFF724
:103AD000D9F97B681B681846FFF7B3F97B685A6809
:103AE0007B681B7C19461046FEF794FF7B681B68B9
:103AF0001846FFF70DFA0AE07B689B7D03F004038C
:103B0000002B04D07B681B681846FFF758F900BFEC
:103B10000837BD4680BD000080B400AF00BFBD4681
:103B20005DF8047B704700BF10B50E4C82B0636A2D
:103B3000019302F069FF0090626A019B9A4207D3E9
:103B4000009B4FF47A72019802FB030002B010BD93
:103B500002F05AFF636A4FF47A7202FB003002B03F
:103B600010BD00BF000C004010B5044641B9FFF77E
:103B7000DBFF0346181BA34238BF00F1FF3010BD26
:103B800002F042FF0346181BA34238BF00F1FF308A
:103B900010BD00BF80B400AF044BDB681B0A03F00C
:103BA00007031846BD465DF8047B704700ED00E052
:103BB00080B483B000AF0346FB80B7F90630002B1A
:103BC0000BDBFB8803F01F020749B7F906305B09DE
:103BD000012000FA02F241F8232000BF0C37BD4655
:103BE0005DF8047B704700BF00E100E080B483B063
:103BF00000AF03463960FB80B7F90630002B0ADBC3
:103C00003B68DAB20C49B7F906301201D2B20B4464
:103C100083F800230AE03B68DAB20849FB8803F026
:103C20000F03043B1201D2B20B441A7600BF0C37CB
:103C3000BD465DF8047B704700E100E000ED00E068
:103C400080B489B000AFF860B9607A60FB6803F0B7
:103C50000703FB61FB69C3F10703042B28BF04239F
:103C6000BB61FB690433062B02D9FB69033B00E00F
:103C700000237B614FF0FF32BB6902FA03F3DA43A2
:103C8000BB681A407B699A404FF0FF317B6901FAAB
:103C900003F3D9437B680B40134318462437BD46D2
:103CA0005DF8047B7047000080B487B000AFF86017
:103CB000B9607A60FB687B610D4ABB6813441B786E
:103CC0001A467B6913441B6823F0C0020849BB688D
:103CD0000B441B7819467B690B4419467B681343D8
:103CE0000B6000BF1C37BD465DF8047B704700BF0A
:103CF0002CBF000880B487B000AFF860B9607A606C
:103D0000FB687B610D4ABB6813441B781A467B69CC
:103D100013441B6823F490720849BB680B441B785A
:103D200019467B690B4419467B6813430B6000BF3F
:103D30001C37BD465DF8047B704700BF2CBF0008F0
:103D400080B487B000AFF860B9607A60FB687B61CF
:103D50000D4ABB6813441B781A467B6913441B68E1
:103D600023F400720849BB680B441B7819467B6931
:103D70000B4419467B6813430B6000BF1C37BD46DC
:103D80005DF8047B704700BF2CBF000880B487B08B
:103D900000AFF860B9607A60FB687B610D4ABB6870
:103DA00013441B781A467B6913441B6823F4806212
:103DB0000849BB680B441B7819467B690B441946BC
:103DC0007B6813430B6000BF1C37BD465DF8047B66
:103DD000704700BF2CBF000880B487B000AFF86008
:103DE000B9607A60FB687B610D4ABB6813441B783D
:103DF0001A467B6913441B6823F4C0520849BB6808
:103E00000B441B7819467B690B4419467B681343A6
:103E10000B6000BF1C37BD465DF8047B704700BFD8
:103E20002CBF000880B487B000AFF860B9607A603A
:103E3000FB687B610D4ABB6813441B781A467B699B
:103E400013441B6823F4C0420849BB680B441B7829
:103E500019467B690B4419467B6813430B6000BF0E
:103E60001C37BD465DF8047B704700BF2CBF0008BF
:103E700080B487B000AFF860B9607A60FB687B619E
:103E80000D4ABB6813441B781A467B6913441B68B0
:103E900023F440320849BB680B441B7819467B6900
:103EA0000B4419467B6813430B6000BF1C37BD46AB
:103EB0005DF8047B704700BF2CBF000880B485B05C
:103EC00000AFF860B9607A60BA68124B13449B0087
:103ED000FA6811498A4201D1002200E020221344ED
:103EE0001B6823F0FF02B9680A4B0B449B00F9687A
:103EF0000948814201D1002100E020210B441946EC
:103F00007B6813430B6000BF1437BD465DF8047B2C
:103F1000704700BF008200100000024080B485B0EE
:103F200000AF786039607B68FB600C4A3B681344E3
:103F30001B781A46FB6813445B6908493A680A44CF
:103F400012781146FA680A4423F00403536100BF53
:103F50001437BD465DF8047B704700BF2CBF0008D6
:103F600080B400AF054B1B68044A43F48023136000
:103F700000BFBD465DF8047B704700BF0044025897
:103F800080B400AF054B1B68044A43F480331360D0
:103F900000BFBD465DF8047B704700BF0044025877
:103FA00080B400AF074B1B6803F40033B3F5003F48
:103FB00001D1012300E000231846BD465DF8047BD3
:103FC000704700BF0044025880B400AF054B1B6827
:103FD000044A43F48053136000BFBD465DF8047B80
:103FE000704700BF0044025880B400AF074B1B6805
:103FF00003F40053B3F5005F01D1012300E0002377
:104000001846BD465DF8047B704700BF0044025867
:1040100080B483B000AF7860064B1B6923F00702C1
:1040200004497B6813430B6100BF0C37BD465DF844
:10403000047B70470044025880B400AF044B1B69F6
:1040400003F038031846BD465DF8047B704700BF97
:104050000044025880B483B000AF7860064B9B697F
:1040600023F4706204497B6813438B6100BF0C37F3
:10407000BD465DF8047B70470044025880B483B0AD
:1040800000AF7860064B9B6923F00F0204497B6800
:1040900013438B6100BF0C37BD465DF8047B70474E
:1040A0000044025880B483B000AF7860064BDB69EF
:1040B00023F0700204497B681343CB6100BF0C37C7
:1040C000BD465DF8047B70470044025880B483B05D
:1040D00000AF7860064BDB6923F4E06204497B683B
:1040E0001343CB6100BF0C37BD465DF8047B7047BE
:1040F0000044025880B483B000AF7860064B9B69DF
:1041000023F0700204497B6813438B6100BF0C37B6
:10411000BD465DF8047B70470044025880B483B00C
:1041200000AF7860064B1B6A23F0700204497B687D
:1041300013430B6200BF0C37BD465DF8047B70472C
:104140000044025880B485B000AF78607B68DAB272
:10415000104B1344FB60FB681A687B68190E7B6880
:104160001B0A03F01F0301FA03F3DB431A407B68C9
:104170001B0CD9B27B681B0A03F01F0301FA03F37F
:104180001A43FB681A6000BF1437BD465DF8047B14
:10419000704700BF4C44025880B582B000AF7860D1
:1041A0007868FFF7CFFF00BF0837BD4680BD00002D
:1041B00080B483B000AF7860064B9B6A23F00302A3
:1041C00004497B6813438B6200BF0C37BD465DF822
:1041D000047B70470044025880B400AF054B1B6855
:1041E000044A43F08073136000BFBD465DF8047B52
:1041F000704700BF0044025880B400AF074B1B68F3
:1042000003F00073B3F1007F01D1012300E000232C
:104210001846BD465DF8047B704700BF0044025855
:1042200080B400AF054BDB6A044A43F48033D362A9
:1042300000BFBD465DF8047B704700BF00440258D4
:1042400080B400AF054BDB6A044A43F48023D36299
:1042500000BFBD465DF8047B704700BF00440258B4
:1042600080B483B000AF7860074BDB6A23F00202B2
:104270007B685B0004491343CB6200BF0C37BD462B
:104280005DF8047B704700BF0044025880B483B0DF
:1042900000AF7860074BDB6A23F00C027B689B0061
:1042A00004491343CB6200BF0C37BD465DF8047B65
:1042B000704700BF0044025880B483B000AF7860FC
:1042C000074B1A6B074B13407A68013A04491343B2
:1042D0000B6300BF0C37BD465DF8047B704700BF21
:1042E0000044025800FEFFFF80B483B000AF786046
:1042F000074B9B6A23F47C727B681B0104491343C0
:104300008B6200BF0C37BD465DF8047B704700BF71
:104310000044025880B483B000AF7860074B1B6B39
:1043200023F47E427B68013B5B02044913430B6329
:1043300000BF0C37BD465DF8047B7047004402584F
:1043400080B483B000AF7860074B1B6B23F4FE0290
:104350007B68013B1B04044913430B6300BF0C370C
:10436000BD465DF8047B70470044025880B483B0BA
:1043700000AF7860074B1B6B23F0FE427B68013B6C
:104380001B06044913430B6300BF0C37BD465DF8A1
:10439000047B70470044025880B485B000AF786059
:1043A0000A4BD3F8D82009497B681343C1F8D830A9
:1043B000064BD3F8D8207B681340FB60FB6800BF36
:1043C0001437BD465DF8047B704700BF00440258B7
:1043D00080B485B000AF78600A4BD3F8E02009497B
:1043E0007B681343C1F8E030064BD3F8E0207B68CC
:1043F0001340FB60FB6800BF1437BD465DF8047BCB
:10440000704700BF0044025880B485B000AF7860A8
:104410000A4BD3F8E82009497B681343C1F8E83018
:10442000064BD3F8E8207B681340FB60FB6800BFB5
:104430001437BD465DF8047B704700BF0044025846
:1044400080B487B000AF78603960184A3B6803F0E9
:104450000303023352F823203B681B0CDB4302EAC0
:1044600003013B681B0C3B613B6993FAA3F3FB60C0
:10447000FB687B617B69002B01D1202303E07B6912
:10448000B3FA83F3DBB203F01F037A689A4007485C
:104490003B6803F003030A43023340F8232000BFC4
:1044A0001C37BD465DF8047B704700BF0004005810
:1044B00080B483B000AF7860064B1B6823F00F0216
:1044C00004497B6813430B6000BF0C37BD465DF8A1
:1044D000047B70470020005280B400AF044B1B687F
:1044E00003F00F031846BD465DF8047B704700BF1C
:1044F0000020005280B483B000AF7860064BDB68C8
:1045000023F0070204497B681343CB6000BF0C37DC
:10451000BD465DF8047B70470048025880B483B004
:1045200000AF7860064B9B6923F4404204497B68E6
:1045300013438B6100BF0C37BD465DF8047B7047A9
:104540000048025880B400AF074B9B6903F4005346
:10455000B3F5005F01D1012300E000231846BD46FA
:104560005DF8047B704700BF0048025880B483B0F8
:1045700000AF78607B681B6843F001027B681A60BB
:1045800000BF0C37BD465DF8047B704780B483B034
:1045900000AF78607B681B6823F000527B681A606C
:1045A00000BF0C37BD465DF8047B704780B489B00E
:1045B00000AF786039607B680833FB60FB6853E8C4
:1045C000003FBB60BB6823F060423B685B0713435E
:1045D000FB617B680833FA69BA617B617969BA6902
:1045E00041E800233B613B69002BE4D100BF00BFE1
:1045F0002437BD465DF8047B704780B489B000AFB6
:10460000786039607B680833FB60FB6853E8003FE3
:10461000BB60BB6823F060623B685B061343FB61D1
:104620007B680833FA69BA617B617969BA6941E8E4
:1046300000233B613B69002BE4D100BF00BF24375E
:10464000BD465DF8047B704780B483B000AF7860EE
:104650007B685B6823F490427B685A607B689B6848
:1046600023F02A027B689A6000BF0C37BD465DF8D4
:10467000047B704780B483B000AF78607B68DB69EF
:1046800003F40013B3F5001F01D1012300E0002360
:1046900018460C37BD465DF8047B704780B483B084
:1046A00000AF78607B68DB6903F48003B3F5800FAB
:1046B00001D1012300E0002318460C37BD465DF808
:1046C000047B704780B485B000AFF860B9607A6051
:1046D000FB681968BB6803FB03F213465B001344D5
:1046E000DB4301EA0302BB6803FB03F3796801FBC8
:1046F00003F31A43FB681A6000BF1437BD465DF828
:10470000047B704780B485B000AFF860B9607A6010
:10471000FB68D968BB6803FB03F213465B001344D4
:10472000DB4301EA0302BB6803FB03F3796801FB87
:1047300003F31A43FB68DA6000BF1437BD465DF827
:10474000047B704780B483B000AF786039603B6809
:104750001A047B689A6100BF0C37BD465DF8047B84
:104760007047000080B500AF0320FFF7A1FE00BF37
:10477000FFF7B2FE0346032BFAD10220FFF7BAFE81
:104780000020FFF7CBFE00BFFFF7DCFE0346002B47
:10479000FAD0FFF7E5FBFFF7F3FB00BFFFF700FCE4
:1047A0000346012BFAD1FFF70FFC00BFFFF71CFCFB
:1047B0000346012BFAD10220FFF7FAFCFFF730FD88
:1047C000FFF73EFD0120FFF761FD0020FFF748FDE8
:1047D0000420FFF789FD40F21310FFF76DFD012063
:1047E000FFF798FD0420FFF7ABFD0220FFF7BEFDA9
:1047F000FFF7F2FC00BFFFF7FFFC0346012BFAD1E5
:104800000820FFF73BFC0320FFF702FC00BFFFF787
:1048100013FC0346182BFAD10020FFF71BFC0820DD
:10482000FFF72CFC4020FFF73DFC4FF48060FFF7C2
:104830004DFC4020FFF75EFC4020FFF76FFC064870
:1048400001F0A0FD002000F039FA0346002B01D052
:1048500000F0DAF900BF80BD8055C82080B58EB069
:1048600000AF07F1180320220021184607F054FA80
:104870003B4600221A605A609A60DA601A615A61F7
:104880004148FFF789FC4FF48020FFF7BDFD082069
:10489000FFF79EFD4FF440733B6002237B600023D3
:1048A000BB600023FB6000233B6107237B613B4629
:1048B0001946364800F055FE2D2200213448FFF7F6
:1048C000FDFA002200213248FFF7EEF90022002114
:1048D0002F48FFF7CDFA002200212D48FFF70AFAF2
:1048E000002200212A48FFF72BFA4FF480620021B2
:1048F0002748FFF74BFA002200212548FFF76CFA02
:10490000002200212248FFF78DFA00212048FFF7FE
:1049100005FB0023BB614FF4E133FB6100233B62E5
:1049200000237B620023BB620C23FB6200233B63FA
:1049300000237B6307F118031946164802F0F6FBC3
:1049400000211448FFF732FE00211248FFF755FE00
:104950001048FFF71BFE0F48FFF776FE0D48FFF7E4
:1049600005FE00BF0B48FFF785FE0346002BF9D07C
:104970000848FFF793FE0346002BF3D000BF00BFAB
:104980003837BD4680BD00BF08000007000C025844
:10499000000002400048004080B400AF00BFBD46A8
:1049A0005DF8047B704780B500AF0120FFF7F4FC91
:1049B000FFF7F0F80346002200211846FFF740F900
:1049C000034619460B20FFF711F90B20FFF7F0F80B
:1049D00000BF80BD80B58AB000AF07F11803002288
:1049E0001A605A609A60DA603B4600221A605A6088
:1049F0009A60DA601A615A610420FFF7E9FC8020AE
:104A0000FFF7E6FC0120FFF7E3FC0220FFF7E0FCE4
:104A10000820FFF7DDFC4020FFF7DAFC1020FFF74D
:104A2000D7FC44F201016848FFF78CFE4FF4806127
:104A30006648FFF787FE02216548FFF783FE4FF4C3
:104A400000533B6000237B6000233B613B461946DB
:104A5000604800F086FD32233B6002237B60002328
:104A6000BB600023FB6000233B610B237B613B4663
:104A70001946584800F075FD86233B6002237B6091
:104A80000023BB600023FB6000233B610B237B61A1
:104A90003B461946504800F064FD44F201033B6078
:104AA00001237B600023BB600023FB6000233B618C
:104AB0003B461946444800F054FD4FF400533B6018
:104AC00002237B600023BB600023FB6000233B616B
:104AD0000B237B613B4619463B4800F042FD4FF4F7
:104AE00080633B6001237B600023BB600023FB608D
:104AF00000233B613B461946344800F032FD4FF439
:104B000000733B6000237B6000233B613B461946FA
:104B1000314800F026FD4FF480633B6002237B6048
:104B20000023BB600023FB6000233B610A237B6101
:104B30003B461946284800F014FD4FF420533B60D3
:104B400002237B600023BB600023FB6000233B61EA
:104B50000B237B613B461946204800F002FD0223EF
:104B60003B6001237B600023BB600023FB600023CC
:104B70003B613B461946164800F0F3FC18490620F5
:104B8000FFF75EFC8023BB610023FB6100233B62D7
:104B9000012387F82430012387F82530012387F883
:104BA000263007F11803184600F0C8FA00228021C9
:104BB0000A48FFF7A7FD002280210848FFF782FD81
:104BC00000BF2837BD4680BD00040258000C0258C3
:104BD000001002580008025800000258001802583D
:104BE000010000F080B582B000AF78607B681B6880
:104BF000044A934201D101F0F3FE00BF0837BD46DD
:104C000080BD00BF000C004080B400AF72B600BF92
:104C100000BFFDE780B400AF00BFFDE780B400AF88
:104C200000BFFDE780B400AF00BFFDE780B400AF78
:104C300000BFFDE780B400AF00BFFDE780B400AF68
:104C400000BFBD465DF8047B704780B400AF00BF75
:104C5000BD465DF8047B704780B400AF00BFBD4621
:104C60005DF8047B704780B400AF00BFBD465DF8BF
:104C7000047B704780B500AF024801F0B9FF00BF68
:104C800080BD00BF9C05002480B483B000AF0A4BF8
:104C9000D3F8F430084A43F00203C2F8F430064B6C
:104CA000D3F8F43003F002037B607B6800BF0C375D
:104CB000BD465DF8047B70470044025880B590B053
:104CC00000AF78607B680F2B27D8002279683220EC
:104CD00001F022FE322001F039FE294A7B68136080
:104CE000284BD3F8E830274A43F00803C2F8E830ED
:104CF000244BD3F8E83003F00803FB60FB6807F1AE
:104D0000100207F114031146184601F00BFDBB6AAF
:104D1000BB63BB6B002B06D101E001232BE001F04C
:104D2000EBFCF86304E001F0E7FC03465B00FB6387
:104D3000FB6B154AA2FB03239B0C013B7B63134BCC
:104D4000134A1A60114B40F2E732DA600F4A7B6B6C
:104D500053600E4B00221A610C4B00229A600B48E4
:104D600001F05EFE0346002B04D1084801F0BAFEB4
:104D7000034600E0012318464037BD4680BD00BF12
:104D8000500000240044025883DE1B439C0500248D
:104D9000000C004080B483B000AF78604FF0B043A7
:104DA000D3F880204FF0B0417B681343C1F88030C6
:104DB00000BF0C37BD465DF8047B704780B483B0FC
:104DC00000AF78604FF0B043D3F890204FF0B0417F
:104DD0007B681343C1F8903000BF0C37BD465DF8C7
:104DE000047B704780B483B000AF78604FF0B0436D
:104DF000D3F8A0204FF0B0417B681343C1F8A03036
:104E000000BF0C37BD465DF8047B704780B483B0AB
:104E100000AF78604FF0B043D3F880207B68DB436D
:104E20004FF0B0411340C1F8803000BF0C37BD4691
:104E30005DF8047B704780B483B000AF78604FF0BA
:104E4000B043D3F890207B68DB434FF0B041134070
:104E5000C1F8903000BF0C37BD465DF8047B704749
:104E600080B483B000AF78604FF0B043D3F8A02097
:104E70007B68DB434FF0B0411340C1F8A03000BF66
:104E80000C37BD465DF8047B704780B483B000AF3B
:104E900078604FF0B043D3F884204FF0B0417B6886
:104EA0001343C1F8843000BF0C37BD465DF8047B66
:104EB000704780B483B000AF78604FF0B043D3F850
:104EC00094204FF0B0417B681343C1F8943000BF89
:104ED0000C37BD465DF8047B704780B483B000AFEB
:104EE00078604FF0B043D3F8A4204FF0B0417B6816
:104EF0001343C1F8A43000BF0C37BD465DF8047BF6
:104F0000704780B483B000AF78604FF0B043D3F8FF
:104F100084207B68DB434FF0B0411340C1F88430FC
:104F200000BF0C37BD465DF8047B704780B483B08A
:104F300000AF78604FF0B043D3F894207B68DB4338
:104F40004FF0B0411340C1F8943000BF0C37BD465C
:104F50005DF8047B704780B483B000AF78604FF099
:104F6000B043D3F8A4207B68DB434FF0B04113403B
:104F7000C1F8A43000BF0C37BD465DF8047B704714
:104F800080B483B000AF78604FF0B0431A684FF040
:104F9000B0417B6813430B6000BF0C37BD465DF822
:104FA000047B704780B483B000AF78604FF0B043AB
:104FB0001A6A4FF0B0417B6813430B6200BF0C3795
:104FC000BD465DF8047B704780B483B000AF786065
:104FD0004FF0B0431A6C4FF0B0417B6813430B6441
:104FE00000BF0C37BD465DF8047B704780B483B0CA
:104FF00000AF78604FF0B0431A687B68DB434FF036
:10500000B04113400B6000BF0C37BD465DF8047B18
:10501000704780B483B000AF78604FF0B0431A6A35
:105020007B68DB434FF0B04113400B6200BF0C378D
:10503000BD465DF8047B704780B483B000AF7860F4
:105040004FF0B0431A6C7B68DB434FF0B041134024
:105050000B6400BF0C37BD465DF8047B704780B41D
:1050600083B000AF78604FF0B0435A684FF0B04162
:105070007B6813434B6000BF0C37BD465DF8047B73
:10508000704780B483B000AF78604FF0B0435A6A85
:105090004FF0B0417B6813434B6200BF0C37BD46F5
:1050A0005DF8047B704780B483B000AF78604FF048
:1050B000B0435A6C4FF0B0417B6813434B6400BF60
:1050C0000C37BD465DF8047B704780B483B000AFF9
:1050D00078604FF0B0435A687B68DB434FF0B041D3
:1050E00013404B6000BF0C37BD465DF8047B704732
:1050F00080B483B000AF78604FF0B0435A6A7B68E9
:10510000DB434FF0B04113404B6200BF0C37BD464C
:105110005DF8047B704780B483B000AF78604FF0D7
:10512000B0435A6C7B68DB434FF0B04113404B6493
:1051300000BF0C37BD465DF8047B704780B584B076
:1051400000AF78600023FB737B681B7B002B00F0B3
:105150000B817B681B68002B54D07B685B7B03F062
:105160000103002B05D07B681B681846FFF712FE71
:1051700004E07B681B681846FFF748FE7B685B7B92
:1051800003F00203002B05D07B681B681846FFF76D
:105190007CFE04E07B681B681846FFF7B2FE7B6864
:1051A0009B7B002B2ED07B689B7B032B1CD0032B7F
:1051B00025DC012B02D0022B0BD020E07B681B6882
:1051C0001846FFF782FF7B681B681846FFF7D8FE7A
:1051D00018E07B681B681846FFF708FF7B681B68B0
:1051E0001846FFF73CFF0DE07B681B681846FFF789
:1051F000C7FE7B681B681846FFF731FF02E00123FA
:10520000FB7300BF7B685B68002B54D07B685B7BC3
:1052100003F00103002B05D07B685B681846FFF79D
:10522000CDFD04E07B685B681846FFF704FE7B68F1
:105230005B7B03F00203002B05D07B685B6818469C
:10524000FFF737FE04E07B685B681846FFF76EFEE9
:105250007B689B7B002B2ED07B689B7B032B1CD019
:10526000032B25DC012B02D0022B0BD020E07B6826
:105270005B681846FFF73CFF7B685B681846FFF7E2
:1052800091FE18E07B685B681846FFF7C2FE7B68FA
:105290005B681846FFF7F5FE0DE07B685B68184613
:1052A000FFF780FE7B685B681846FFF7EAFE02E0C6
:1052B0000123FB7300BF7B689B68002B72D07B6867
:1052C0005B7B03F00103002B05D07B689B681846CD
:1052D000FFF788FD04E07B689B681846FFF7C0FD78
:1052E0007B685B7B03F00203002B05D07B689B6827
:1052F0001846FFF7F2FD04E07B689B681846FFF74D
:105300002AFE7B689B7B002B4CD07B689B7B032B0E
:105310001CD0032B25DC012B02D0022B0BD020E06C
:105320007B689B681846FFF7F6FE7B689B6818460B
:10533000FFF74AFE36E07B689B681846FFF77CFE65
:105340007B689B681846FFF7AEFE2BE07B689B6886
:105350001846FFF739FE7B689B681846FFF7A3FEE7
:1053600020E00123FB731DE07B681B681846FFF7F4
:105370004DFD7B685B681846FFF75DFD7B689B68A9
:105380001846FFF76DFD7B681B681846FFF7B9FDEF
:105390007B685B681846FFF7C9FD7B689B68184609
:1053A000FFF7D9FDFB7B18461037BD4680BD80B4A2
:1053B00085B000AFF860B9607A60FB681968BB68B7
:1053C00003FB03F213465B001344DB4301EA0302D1
:1053D000BB6803FB03F3796801FB03F31A43FB6823
:1053E0001A6000BF1437BD465DF8047B704780B477
:1053F00085B000AFF860B9607A60FB685A68BB6836
:10540000DB431A40BB68796801FB03F31A43FB686E
:105410005A6000BF1437BD465DF8047B704780B406
:1054200085B000AFF860B9607A60FB689968BB68C6
:1054300003FB03F213465B001344DB4301EA030260
:10544000BB6803FB03F3796801FB03F31A43FB68B2
:105450009A6000BF1437BD465DF8047B704780B486
:1054600085B000AFF860B9607A60FB68D968BB6846
:1054700003FB03F213465B001344DB4301EA030220
:10548000BB6803FB03F3796801FB03F31A43FB6872
:10549000DA6000BF1437BD465DF8047B704780B406
:1054A00085B000AFF860B9607A60FB68196ABB68C4
:1054B00003FB03F3BA6802FB03F3BA6803FB02F2CF
:1054C00013461B019B1ADB4301EA0302BB6803FB83
:1054D00003F3B96801FB03F3B96801FB03F37968CF
:1054E00001FB03F31A43FB681A6200BF1437BD4681
:1054F0005DF8047B704780B485B000AFF860B96098
:105500007A60FB68596ABB681B0ABA68120A02FB18
:1055100003F3BA68120A02FB03F3BA68120A03FB28
:1055200002F213461B019B1ADB4301EA0302BB682C
:105530001B0AB968090A01FB03F3B968090A01FBF0
:1055400003F3B968090A01FB03F3796801FB03F36C
:105550001A43FB685A6200BF1437BD465DF8047BEE
:10556000704780B588B000AF786039603B681B68D1
:105570003B613B6993FAA3F3FB60FB687B617B694A
:10558000002B01D1202303E07B69B3FA83F3DBB264
:10559000FB6148E03B681A680121FB6901FA03F3EB
:1055A0001340BB61BB69002B3AD03B685B68012BA1
:1055B00003D03B685B68022B0ED13B689B681A46A0
:1055C000B9697868FFF72BFF3B6819683B68DB68AF
:1055D0001A467868FFF70BFF3B681B691A46B969E2
:1055E0007868FFF73CFF3B685B68022B11D1BB6911
:1055F000FF2B07D83B685B691A46B9697868FFF7E3
:105600004EFF06E03B685B691A46B9697868FFF7A8
:1056100072FF3B685B681A46B9697868FFF7C7FE96
:10562000FB690133FB613B681A68FB6922FA03F3EB
:10563000002BAFD1002318462037BD4680BD0000A7
:1056400080B400AF074B1B6803F40033B3F5003F91
:1056500001D1012300E000231846BD465DF8047B1C
:10566000704700BF0044025880B400AF064B1B686F
:1056700003F00403042B01D1012300E000231846AA
:10568000BD465DF8047B70470044025880B400AF0B
:10569000044B1B6803F018031846BD465DF8047BF5
:1056A000704700BF0044025880B400AF074B1B682E
:1056B00003F48073B3F5807F01D1012300E0002360
:1056C0001846BD465DF8047B704700BF0044025891
:1056D00080B400AF064B1B6F03F00203022B01D115
:1056E000012300E000231846BD465DF8047B7047A7
:1056F0000044025880B400AF044B1B6903F0380328
:105700001846BD465DF8047B704700BF0044025850
:1057100080B400AF044B9B6903F470631846BD4628
:105720005DF8047B704700BF0044025880B400AFAE
:10573000044B9B6903F00F031846BD465DF8047BDC
:10574000704700BF0044025880B400AF044BDB69CF
:1057500003F070031846BD465DF8047B704700BF38
:105760000044025880B400AF044BDB6903F4E063EB
:105770001846BD465DF8047B704700BF00440258E0
:1057800080B485B000AF78607B68DAB20E4B13440A
:10579000FB60FB681A687B68190E7B681B0A03F0C4
:1057A0001F0301FA03F31A407B681B0A03F01F036F
:1057B00022FA03F31A047B68134318461437BD46D4
:1057C0005DF8047B704700BF4C44025880B582B03E
:1057D00000AF78607868FFF7D3FF034618460837B4
:1057E000BD4680BD80B400AF044B9B6A03F0030349
:1057F0001846BD465DF8047B704700BF0044025860
:1058000080B400AF074BDB6A03F48033B3F5803F0D
:1058100001D1012300E000231846BD465DF8047B5A
:10582000704700BF0044025880B400AF074BDB6AEA
:1058300003F40033B3F5003F01D1012300E000235E
:105840001846BD465DF8047B704700BF004402580F
:1058500080B400AF074BDB6A03F48023B3F5802FDD
:1058600001D1012300E000231846BD465DF8047B0A
:10587000704700BF0044025880B400AF064BDB6A9B
:1058800003F00103012B01D1012300E0002318469E
:10589000BD465DF8047B70470044025880B400AFF9
:1058A000044B1B6BC3F3080301331846BD465DF878
:1058B000047B70470044025880B400AF044B9B6ADD
:1058C0001B0903F03F031846BD465DF8047B704793
:1058D0000044025880B400AF054B1B6B5B0A03F019
:1058E0007F0301331846BD465DF8047B704700BF57
:1058F0000044025880B400AF054B1B6B1B0C03F037
:105900007F0301331846BD465DF8047B704700BF36
:105910000044025880B400AF054B1B6B1B0E03F014
:105920007F0301331846BD465DF8047B704700BF16
:105930000044025880B400AF044B5B6BDB08C3F338
:105940000C031846BD465DF8047B704700440258BE
:1059500080B400AF074B1B6803F00063B3F1006F26
:1059600001D1012300E000231846BD465DF8047B09
:10597000704700BF0044025880B400AF074BDB6A99
:1059800003F40023B3F5002F01D1012300E000232D
:105990001846BD465DF8047B704700BF00440258BE
:1059A00080B400AF074BDB6A03F48013B3F5801FAC
:1059B00001D1012300E000231846BD465DF8047BB9
:1059C000704700BF0044025880B400AF074BDB6A49
:1059D00003F40013B3F5001F01D1012300E00023FD
:1059E0001846BD465DF8047B704700BF004402586E
:1059F00080B400AF064BDB6A03F01003102B01D11B
:105A0000012300E000231846BD465DF8047B704783
:105A10000044025880B400AF044B9B6BC3F30803EF
:105A200001331846BD465DF8047B704700440258B8
:105A300080B400AF044B9B6A1B0B03F03F03184676
:105A4000BD465DF8047B70470044025880B400AF47
:105A5000054B9B6B5B0A03F07F0301331846BD4681
:105A60005DF8047B704700BF0044025880B400AF6B
:105A7000054B9B6B1B0C03F07F0301331846BD469F
:105A80005DF8047B704700BF0044025880B400AF4B
:105A9000054B9B6B1B0E03F07F0301331846BD467D
:105AA0005DF8047B704700BF0044025880B400AF2B
:105AB000044BDB6BDB08C3F30C031846BD465DF8F3
:105AC000047B70470044025880B400AF074B1B684A
:105AD00003F00053B3F1005F01D1012300E0002384
